{
  "_format": "hh-sol-artifact-1",
  "contractName": "RoboPunksNFT",
  "sourceName": "contracts/RoboPunksNFT.sol",
  "abi": [
    {
      "inputs": [],
      "stateMutability": "nonpayable",
      "type": "constructor"
    },
    {
      "anonymous": false,
      "inputs": [
        {
          "indexed": true,
          "internalType": "address",
          "name": "owner",
          "type": "address"
        },
        {
          "indexed": true,
          "internalType": "address",
          "name": "approved",
          "type": "address"
        },
        {
          "indexed": true,
          "internalType": "uint256",
          "name": "tokenId",
          "type": "uint256"
        }
      ],
      "name": "Approval",
      "type": "event"
    },
    {
      "anonymous": false,
      "inputs": [
        {
          "indexed": true,
          "internalType": "address",
          "name": "owner",
          "type": "address"
        },
        {
          "indexed": true,
          "internalType": "address",
          "name": "operator",
          "type": "address"
        },
        {
          "indexed": false,
          "internalType": "bool",
          "name": "approved",
          "type": "bool"
        }
      ],
      "name": "ApprovalForAll",
      "type": "event"
    },
    {
      "anonymous": false,
      "inputs": [
        {
          "indexed": false,
          "internalType": "uint256",
          "name": "_fromTokenId",
          "type": "uint256"
        },
        {
          "indexed": false,
          "internalType": "uint256",
          "name": "_toTokenId",
          "type": "uint256"
        }
      ],
      "name": "BatchMetadataUpdate",
      "type": "event"
    },
    {
      "anonymous": false,
      "inputs": [
        {
          "indexed": false,
          "internalType": "uint256",
          "name": "_tokenId",
          "type": "uint256"
        }
      ],
      "name": "MetadataUpdate",
      "type": "event"
    },
    {
      "anonymous": false,
      "inputs": [
        {
          "indexed": true,
          "internalType": "address",
          "name": "previousOwner",
          "type": "address"
        },
        {
          "indexed": true,
          "internalType": "address",
          "name": "newOwner",
          "type": "address"
        }
      ],
      "name": "OwnershipTransferred",
      "type": "event"
    },
    {
      "anonymous": false,
      "inputs": [
        {
          "indexed": false,
          "internalType": "address",
          "name": "account",
          "type": "address"
        }
      ],
      "name": "Paused",
      "type": "event"
    },
    {
      "anonymous": false,
      "inputs": [
        {
          "indexed": true,
          "internalType": "address",
          "name": "from",
          "type": "address"
        },
        {
          "indexed": true,
          "internalType": "address",
          "name": "to",
          "type": "address"
        },
        {
          "indexed": true,
          "internalType": "uint256",
          "name": "tokenId",
          "type": "uint256"
        }
      ],
      "name": "Transfer",
      "type": "event"
    },
    {
      "anonymous": false,
      "inputs": [
        {
          "indexed": false,
          "internalType": "address",
          "name": "account",
          "type": "address"
        }
      ],
      "name": "Unpaused",
      "type": "event"
    },
    {
      "inputs": [
        {
          "internalType": "address",
          "name": "to",
          "type": "address"
        },
        {
          "internalType": "uint256",
          "name": "tokenId",
          "type": "uint256"
        }
      ],
      "name": "approve",
      "outputs": [],
      "stateMutability": "nonpayable",
      "type": "function"
    },
    {
      "inputs": [
        {
          "internalType": "address",
          "name": "owner",
          "type": "address"
        }
      ],
      "name": "balanceOf",
      "outputs": [
        {
          "internalType": "uint256",
          "name": "",
          "type": "uint256"
        }
      ],
      "stateMutability": "view",
      "type": "function"
    },
    {
      "inputs": [
        {
          "internalType": "uint256",
          "name": "tokenId",
          "type": "uint256"
        }
      ],
      "name": "getApproved",
      "outputs": [
        {
          "internalType": "address",
          "name": "",
          "type": "address"
        }
      ],
      "stateMutability": "view",
      "type": "function"
    },
    {
      "inputs": [
        {
          "internalType": "address",
          "name": "owner",
          "type": "address"
        },
        {
          "internalType": "address",
          "name": "operator",
          "type": "address"
        }
      ],
      "name": "isApprovedForAll",
      "outputs": [
        {
          "internalType": "bool",
          "name": "",
          "type": "bool"
        }
      ],
      "stateMutability": "view",
      "type": "function"
    },
    {
      "inputs": [],
      "name": "maxPerWallet",
      "outputs": [
        {
          "internalType": "uint256",
          "name": "",
          "type": "uint256"
        }
      ],
      "stateMutability": "view",
      "type": "function"
    },
    {
      "inputs": [],
      "name": "maxSupply",
      "outputs": [
        {
          "internalType": "uint256",
          "name": "",
          "type": "uint256"
        }
      ],
      "stateMutability": "view",
      "type": "function"
    },
    {
      "inputs": [],
      "name": "mintPrice",
      "outputs": [
        {
          "internalType": "uint256",
          "name": "",
          "type": "uint256"
        }
      ],
      "stateMutability": "view",
      "type": "function"
    },
    {
      "inputs": [],
      "name": "name",
      "outputs": [
        {
          "internalType": "string",
          "name": "",
          "type": "string"
        }
      ],
      "stateMutability": "view",
      "type": "function"
    },
    {
      "inputs": [],
      "name": "owner",
      "outputs": [
        {
          "internalType": "address",
          "name": "",
          "type": "address"
        }
      ],
      "stateMutability": "view",
      "type": "function"
    },
    {
      "inputs": [
        {
          "internalType": "uint256",
          "name": "tokenId",
          "type": "uint256"
        }
      ],
      "name": "ownerOf",
      "outputs": [
        {
          "internalType": "address",
          "name": "",
          "type": "address"
        }
      ],
      "stateMutability": "view",
      "type": "function"
    },
    {
      "inputs": [],
      "name": "pause",
      "outputs": [],
      "stateMutability": "nonpayable",
      "type": "function"
    },
    {
      "inputs": [],
      "name": "paused",
      "outputs": [
        {
          "internalType": "bool",
          "name": "",
          "type": "bool"
        }
      ],
      "stateMutability": "view",
      "type": "function"
    },
    {
      "inputs": [],
      "name": "renounceOwnership",
      "outputs": [],
      "stateMutability": "nonpayable",
      "type": "function"
    },
    {
      "inputs": [
        {
          "internalType": "address",
          "name": "to",
          "type": "address"
        },
        {
          "internalType": "uint256",
          "name": "quantity_",
          "type": "uint256"
        },
        {
          "internalType": "string",
          "name": "uri",
          "type": "string"
        }
      ],
      "name": "safeMint",
      "outputs": [],
      "stateMutability": "payable",
      "type": "function"
    },
    {
      "inputs": [
        {
          "internalType": "address",
          "name": "from",
          "type": "address"
        },
        {
          "internalType": "address",
          "name": "to",
          "type": "address"
        },
        {
          "internalType": "uint256",
          "name": "tokenId",
          "type": "uint256"
        }
      ],
      "name": "safeTransferFrom",
      "outputs": [],
      "stateMutability": "nonpayable",
      "type": "function"
    },
    {
      "inputs": [
        {
          "internalType": "address",
          "name": "from",
          "type": "address"
        },
        {
          "internalType": "address",
          "name": "to",
          "type": "address"
        },
        {
          "internalType": "uint256",
          "name": "tokenId",
          "type": "uint256"
        },
        {
          "internalType": "bytes",
          "name": "data",
          "type": "bytes"
        }
      ],
      "name": "safeTransferFrom",
      "outputs": [],
      "stateMutability": "nonpayable",
      "type": "function"
    },
    {
      "inputs": [
        {
          "internalType": "address",
          "name": "operator",
          "type": "address"
        },
        {
          "internalType": "bool",
          "name": "approved",
          "type": "bool"
        }
      ],
      "name": "setApprovalForAll",
      "outputs": [],
      "stateMutability": "nonpayable",
      "type": "function"
    },
    {
      "inputs": [
        {
          "internalType": "bytes4",
          "name": "interfaceId",
          "type": "bytes4"
        }
      ],
      "name": "supportsInterface",
      "outputs": [
        {
          "internalType": "bool",
          "name": "",
          "type": "bool"
        }
      ],
      "stateMutability": "view",
      "type": "function"
    },
    {
      "inputs": [],
      "name": "symbol",
      "outputs": [
        {
          "internalType": "string",
          "name": "",
          "type": "string"
        }
      ],
      "stateMutability": "view",
      "type": "function"
    },
    {
      "inputs": [
        {
          "internalType": "uint256",
          "name": "tokenId",
          "type": "uint256"
        }
      ],
      "name": "tokenURI",
      "outputs": [
        {
          "internalType": "string",
          "name": "",
          "type": "string"
        }
      ],
      "stateMutability": "view",
      "type": "function"
    },
    {
      "inputs": [],
      "name": "totalSupply",
      "outputs": [
        {
          "internalType": "uint256",
          "name": "",
          "type": "uint256"
        }
      ],
      "stateMutability": "view",
      "type": "function"
    },
    {
      "inputs": [
        {
          "internalType": "address",
          "name": "from",
          "type": "address"
        },
        {
          "internalType": "address",
          "name": "to",
          "type": "address"
        },
        {
          "internalType": "uint256",
          "name": "tokenId",
          "type": "uint256"
        }
      ],
      "name": "transferFrom",
      "outputs": [],
      "stateMutability": "nonpayable",
      "type": "function"
    },
    {
      "inputs": [
        {
          "internalType": "address",
          "name": "newOwner",
          "type": "address"
        }
      ],
      "name": "transferOwnership",
      "outputs": [],
      "stateMutability": "nonpayable",
      "type": "function"
    },
    {
      "inputs": [],
      "name": "unpause",
      "outputs": [],
      "stateMutability": "nonpayable",
      "type": "function"
    },
    {
      "inputs": [
        {
          "internalType": "address",
          "name": "",
          "type": "address"
        }
      ],
      "name": "walletMints",
      "outputs": [
        {
          "internalType": "uint256",
          "name": "",
          "type": "uint256"
        }
      ],
      "stateMutability": "view",
      "type": "function"
    },
    {
      "inputs": [],
      "name": "withdraw",
      "outputs": [],
      "stateMutability": "payable",
      "type": "function"
    }
  ],
  "bytecode": "0x608060405266470de4df82000060085560006009556064600a556003600b553480156200002b57600080fd5b506040518060400160405280600c81526020017f526f626f50756e6b734e465400000000000000000000000000000000000000008152506040518060400160405280600581526020017f5262706b730000000000000000000000000000000000000000000000000000008152508160009081620000a9919062000447565b508060019081620000bb919062000447565b5050506000600760006101000a81548160ff021916908315150217905550620000f9620000ed620000ff60201b60201c565b6200010760201b60201c565b6200052e565b600033905090565b6000600760019054906101000a900473ffffffffffffffffffffffffffffffffffffffff16905081600760016101000a81548173ffffffffffffffffffffffffffffffffffffffff021916908373ffffffffffffffffffffffffffffffffffffffff1602179055508173ffffffffffffffffffffffffffffffffffffffff168173ffffffffffffffffffffffffffffffffffffffff167f8be0079c531659141344cd1fd0a4f28419497f9722a3daafe3b4186f6b6457e060405160405180910390a35050565b600081519050919050565b7f4e487b7100000000000000000000000000000000000000000000000000000000600052604160045260246000fd5b7f4e487b7100000000000000000000000000000000000000000000000000000000600052602260045260246000fd5b600060028204905060018216806200024f57607f821691505b60208210810362000265576200026462000207565b5b50919050565b60008190508160005260206000209050919050565b60006020601f8301049050919050565b600082821b905092915050565b600060088302620002cf7fffffffffffffffffffffffffffffffffffffffffffffffffffffffffffffffff8262000290565b620002db868362000290565b95508019841693508086168417925050509392505050565b6000819050919050565b6000819050919050565b600062000328620003226200031c84620002f3565b620002fd565b620002f3565b9050919050565b6000819050919050565b620003448362000307565b6200035c62000353826200032f565b8484546200029d565b825550505050565b600090565b6200037362000364565b6200038081848462000339565b505050565b5b81811015620003a8576200039c60008262000369565b60018101905062000386565b5050565b601f821115620003f757620003c1816200026b565b620003cc8462000280565b81016020851015620003dc578190505b620003f4620003eb8562000280565b83018262000385565b50505b505050565b600082821c905092915050565b60006200041c60001984600802620003fc565b1980831691505092915050565b600062000437838362000409565b9150826002028217905092915050565b6200045282620001cd565b67ffffffffffffffff8111156200046e576200046d620001d8565b5b6200047a825462000236565b62000487828285620003ac565b600060209050601f831160018114620004bf5760008415620004aa578287015190505b620004b6858262000429565b86555062000526565b601f198416620004cf866200026b565b60005b82811015620004f957848901518255600182019150602085019450602081019050620004d2565b8683101562000519578489015162000515601f89168262000409565b8355505b6001600288020188555050505b505050505050565b613a1b806200053e6000396000f3fe6080604052600436106101815760003560e01c806370a08231116100d1578063b88d4fde1161008a578063d5abeb0111610064578063d5abeb011461051c578063e985e9c514610547578063f0293fd314610584578063f2fde38b146105c157610181565b8063b88d4fde1461049a578063c87b56dd146104c3578063cd279c7c1461050057610181565b806370a08231146103b0578063715018a6146103ed5780638456cb59146104045780638da5cb5b1461041b57806395d89b4114610446578063a22cb4651461047157610181565b80633ccfd60b1161013e578063453c231011610118578063453c2310146102f25780635c975abb1461031d5780636352211e146103485780636817c76c1461038557610181565b80633ccfd60b146102a85780633f4ba83a146102b257806342842e0e146102c957610181565b806301ffc9a71461018657806306fdde03146101c3578063081812fc146101ee578063095ea7b31461022b57806318160ddd1461025457806323b872dd1461027f575b600080fd5b34801561019257600080fd5b506101ad60048036038101906101a891906123d2565b6105ea565b6040516101ba919061241a565b60405180910390f35b3480156101cf57600080fd5b506101d86105fc565b6040516101e591906124c5565b60405180910390f35b3480156101fa57600080fd5b506102156004803603810190610210919061251d565b61068e565b604051610222919061258b565b60405180910390f35b34801561023757600080fd5b50610252600480360381019061024d91906125d2565b6106d4565b005b34801561026057600080fd5b506102696107eb565b6040516102769190612621565b60405180910390f35b34801561028b57600080fd5b506102a660048036038101906102a1919061263c565b6107f1565b005b6102b0610851565b005b3480156102be57600080fd5b506102c7610951565b005b3480156102d557600080fd5b506102f060048036038101906102eb919061263c565b610963565b005b3480156102fe57600080fd5b50610307610983565b6040516103149190612621565b60405180910390f35b34801561032957600080fd5b50610332610989565b60405161033f919061241a565b60405180910390f35b34801561035457600080fd5b5061036f600480360381019061036a919061251d565b6109a0565b60405161037c919061258b565b60405180910390f35b34801561039157600080fd5b5061039a610a26565b6040516103a79190612621565b60405180910390f35b3480156103bc57600080fd5b506103d760048036038101906103d2919061268f565b610a2c565b6040516103e49190612621565b60405180910390f35b3480156103f957600080fd5b50610402610ae3565b005b34801561041057600080fd5b50610419610af7565b005b34801561042757600080fd5b50610430610b09565b60405161043d919061258b565b60405180910390f35b34801561045257600080fd5b5061045b610b33565b60405161046891906124c5565b60405180910390f35b34801561047d57600080fd5b50610498600480360381019061049391906126e8565b610bc5565b005b3480156104a657600080fd5b506104c160048036038101906104bc919061285d565b610bdb565b005b3480156104cf57600080fd5b506104ea60048036038101906104e5919061251d565b610c3d565b6040516104f791906124c5565b60405180910390f35b61051a60048036038101906105159190612981565b610c4f565b005b34801561052857600080fd5b50610531610e27565b60405161053e9190612621565b60405180910390f35b34801561055357600080fd5b5061056e600480360381019061056991906129f0565b610e2d565b60405161057b919061241a565b60405180910390f35b34801561059057600080fd5b506105ab60048036038101906105a6919061268f565b610ec1565b6040516105b89190612621565b60405180910390f35b3480156105cd57600080fd5b506105e860048036038101906105e3919061268f565b610ed9565b005b60006105f582610f5c565b9050919050565b60606000805461060b90612a5f565b80601f016020809104026020016040519081016040528092919081815260200182805461063790612a5f565b80156106845780601f1061065957610100808354040283529160200191610684565b820191906000526020600020905b81548152906001019060200180831161066757829003601f168201915b5050505050905090565b600061069982610fbd565b6004600083815260200190815260200160002060009054906101000a900473ffffffffffffffffffffffffffffffffffffffff169050919050565b60006106df826109a0565b90508073ffffffffffffffffffffffffffffffffffffffff168373ffffffffffffffffffffffffffffffffffffffff160361074f576040517f08c379a000000000000000000000000000000000000000000000000000000000815260040161074690612b02565b60405180910390fd5b8073ffffffffffffffffffffffffffffffffffffffff1661076e611008565b73ffffffffffffffffffffffffffffffffffffffff16148061079d575061079c81610797611008565b610e2d565b5b6107dc576040517f08c379a00000000000000000000000000000000000000000000000000000000081526004016107d390612b94565b60405180910390fd5b6107e68383611010565b505050565b60095481565b6108026107fc611008565b826110c9565b610841576040517f08c379a000000000000000000000000000000000000000000000000000000000815260040161083890612c26565b60405180910390fd5b61084c83838361115e565b505050565b610859611457565b6000479050600081116108a1576040517f08c379a000000000000000000000000000000000000000000000000000000000815260040161089890612c92565b60405180910390fd5b60003373ffffffffffffffffffffffffffffffffffffffff16826040516108c790612ce3565b60006040518083038185875af1925050503d8060008114610904576040519150601f19603f3d011682016040523d82523d6000602084013e610909565b606091505b505090508061094d576040517f08c379a000000000000000000000000000000000000000000000000000000000815260040161094490612d44565b60405180910390fd5b5050565b610959611457565b6109616114d5565b565b61097e83838360405180602001604052806000815250610bdb565b505050565b600b5481565b6000600760009054906101000a900460ff16905090565b6000806109ac83611538565b9050600073ffffffffffffffffffffffffffffffffffffffff168173ffffffffffffffffffffffffffffffffffffffff1603610a1d576040517f08c379a0000000000000000000000000000000000000000000000000000000008152600401610a1490612db0565b60405180910390fd5b80915050919050565b60085481565b60008073ffffffffffffffffffffffffffffffffffffffff168273ffffffffffffffffffffffffffffffffffffffff1603610a9c576040517f08c379a0000000000000000000000000000000000000000000000000000000008152600401610a9390612e42565b60405180910390fd5b600360008373ffffffffffffffffffffffffffffffffffffffff1673ffffffffffffffffffffffffffffffffffffffff168152602001908152602001600020549050919050565b610aeb611457565b610af56000611575565b565b610aff611457565b610b0761163b565b565b6000600760019054906101000a900473ffffffffffffffffffffffffffffffffffffffff16905090565b606060018054610b4290612a5f565b80601f0160208091040260200160405190810160405280929190818152602001828054610b6e90612a5f565b8015610bbb5780601f10610b9057610100808354040283529160200191610bbb565b820191906000526020600020905b815481529060010190602001808311610b9e57829003601f168201915b5050505050905090565b610bd7610bd0611008565b838361169e565b5050565b610bec610be6611008565b836110c9565b610c2b576040517f08c379a0000000000000000000000000000000000000000000000000000000008152600401610c2290612c26565b60405180910390fd5b610c378484848461180a565b50505050565b6060610c4882611866565b9050919050565b60085482610c5d9190612e91565b3414610c9e576040517f08c379a0000000000000000000000000000000000000000000000000000000008152600401610c9590612f1f565b60405180910390fd5b600a5482600954610caf9190612f3f565b1115610cf0576040517f08c379a0000000000000000000000000000000000000000000000000000000008152600401610ce790612fbf565b60405180910390fd5b600b5482600c60003373ffffffffffffffffffffffffffffffffffffffff1673ffffffffffffffffffffffffffffffffffffffff16815260200190815260200160002054610d3e9190612f3f565b1115610d7f576040517f08c379a0000000000000000000000000000000000000000000000000000000008152600401610d769061302b565b60405180910390fd5b60005b82811015610e21576001600c60003373ffffffffffffffffffffffffffffffffffffffff1673ffffffffffffffffffffffffffffffffffffffff1681526020019081526020016000206000828254610dda9190612f3f565b925050819055506000610ded600d611978565b9050610df9600d611986565b610e03858261199c565b610e0d81846119ba565b508080610e199061304b565b915050610d82565b50505050565b600a5481565b6000600560008473ffffffffffffffffffffffffffffffffffffffff1673ffffffffffffffffffffffffffffffffffffffff16815260200190815260200160002060008373ffffffffffffffffffffffffffffffffffffffff1673ffffffffffffffffffffffffffffffffffffffff16815260200190815260200160002060009054906101000a900460ff16905092915050565b600c6020528060005260406000206000915090505481565b610ee1611457565b600073ffffffffffffffffffffffffffffffffffffffff168173ffffffffffffffffffffffffffffffffffffffff1603610f50576040517f08c379a0000000000000000000000000000000000000000000000000000000008152600401610f4790613105565b60405180910390fd5b610f5981611575565b50565b6000634906490660e01b7bffffffffffffffffffffffffffffffffffffffffffffffffffffffff1916827bffffffffffffffffffffffffffffffffffffffffffffffffffffffff19161480610fb65750610fb582611a5e565b5b9050919050565b610fc681611b40565b611005576040517f08c379a0000000000000000000000000000000000000000000000000000000008152600401610ffc90612db0565b60405180910390fd5b50565b600033905090565b816004600083815260200190815260200160002060006101000a81548173ffffffffffffffffffffffffffffffffffffffff021916908373ffffffffffffffffffffffffffffffffffffffff160217905550808273ffffffffffffffffffffffffffffffffffffffff16611083836109a0565b73ffffffffffffffffffffffffffffffffffffffff167f8c5be1e5ebec7d5bd14f71427d1e84f3dd0314c0f7b2291e5b200ac8c7c3b92560405160405180910390a45050565b6000806110d5836109a0565b90508073ffffffffffffffffffffffffffffffffffffffff168473ffffffffffffffffffffffffffffffffffffffff16148061111757506111168185610e2d565b5b8061115557508373ffffffffffffffffffffffffffffffffffffffff1661113d8461068e565b73ffffffffffffffffffffffffffffffffffffffff16145b91505092915050565b8273ffffffffffffffffffffffffffffffffffffffff1661117e826109a0565b73ffffffffffffffffffffffffffffffffffffffff16146111d4576040517f08c379a00000000000000000000000000000000000000000000000000000000081526004016111cb90613197565b60405180910390fd5b600073ffffffffffffffffffffffffffffffffffffffff168273ffffffffffffffffffffffffffffffffffffffff1603611243576040517f08c379a000000000000000000000000000000000000000000000000000000000815260040161123a90613229565b60405180910390fd5b6112508383836001611b81565b8273ffffffffffffffffffffffffffffffffffffffff16611270826109a0565b73ffffffffffffffffffffffffffffffffffffffff16146112c6576040517f08c379a00000000000000000000000000000000000000000000000000000000081526004016112bd90613197565b60405180910390fd5b6004600082815260200190815260200160002060006101000a81549073ffffffffffffffffffffffffffffffffffffffff02191690556001600360008573ffffffffffffffffffffffffffffffffffffffff1673ffffffffffffffffffffffffffffffffffffffff168152602001908152602001600020600082825403925050819055506001600360008473ffffffffffffffffffffffffffffffffffffffff1673ffffffffffffffffffffffffffffffffffffffff16815260200190815260200160002060008282540192505081905550816002600083815260200190815260200160002060006101000a81548173ffffffffffffffffffffffffffffffffffffffff021916908373ffffffffffffffffffffffffffffffffffffffff160217905550808273ffffffffffffffffffffffffffffffffffffffff168473ffffffffffffffffffffffffffffffffffffffff167fddf252ad1be2c89b69c2b068fc378daa952ba7f163c4a11628f55a4df523b3ef60405160405180910390a46114528383836001611b9b565b505050565b61145f611008565b73ffffffffffffffffffffffffffffffffffffffff1661147d610b09565b73ffffffffffffffffffffffffffffffffffffffff16146114d3576040517f08c379a00000000000000000000000000000000000000000000000000000000081526004016114ca90613295565b60405180910390fd5b565b6114dd611ba1565b6000600760006101000a81548160ff0219169083151502179055507f5db9ee0a495bf2e6ff9c91a7834c1ba4fdd244a5e8aa4e537bd38aeae4b073aa611521611008565b60405161152e919061258b565b60405180910390a1565b60006002600083815260200190815260200160002060009054906101000a900473ffffffffffffffffffffffffffffffffffffffff169050919050565b6000600760019054906101000a900473ffffffffffffffffffffffffffffffffffffffff16905081600760016101000a81548173ffffffffffffffffffffffffffffffffffffffff021916908373ffffffffffffffffffffffffffffffffffffffff1602179055508173ffffffffffffffffffffffffffffffffffffffff168173ffffffffffffffffffffffffffffffffffffffff167f8be0079c531659141344cd1fd0a4f28419497f9722a3daafe3b4186f6b6457e060405160405180910390a35050565b611643611bea565b6001600760006101000a81548160ff0219169083151502179055507f62e78cea01bee320cd4e420270b5ea74000d11b0c9f74754ebdbfc544b05a258611687611008565b604051611694919061258b565b60405180910390a1565b8173ffffffffffffffffffffffffffffffffffffffff168373ffffffffffffffffffffffffffffffffffffffff160361170c576040517f08c379a000000000000000000000000000000000000000000000000000000000815260040161170390613301565b60405180910390fd5b80600560008573ffffffffffffffffffffffffffffffffffffffff1673ffffffffffffffffffffffffffffffffffffffff16815260200190815260200160002060008473ffffffffffffffffffffffffffffffffffffffff1673ffffffffffffffffffffffffffffffffffffffff16815260200190815260200160002060006101000a81548160ff0219169083151502179055508173ffffffffffffffffffffffffffffffffffffffff168373ffffffffffffffffffffffffffffffffffffffff167f17307eab39ab6107e8899845ad3d59bd9653f200f220920489ca2b5937696c31836040516117fd919061241a565b60405180910390a3505050565b61181584848461115e565b61182184848484611c34565b611860576040517f08c379a000000000000000000000000000000000000000000000000000000000815260040161185790613393565b60405180910390fd5b50505050565b606061187182610fbd565b600060066000848152602001908152602001600020805461189190612a5f565b80601f01602080910402602001604051908101604052809291908181526020018280546118bd90612a5f565b801561190a5780601f106118df5761010080835404028352916020019161190a565b820191906000526020600020905b8154815290600101906020018083116118ed57829003601f168201915b50505050509050600061191b611dbb565b90506000815103611930578192505050611973565b60008251111561196557808260405160200161194d9291906133ef565b60405160208183030381529060405292505050611973565b61196e84611dd2565b925050505b919050565b600081600001549050919050565b6001816000016000828254019250508190555050565b6119b6828260405180602001604052806000815250611e3a565b5050565b6119c382611b40565b611a02576040517f08c379a00000000000000000000000000000000000000000000000000000000081526004016119f990613485565b60405180910390fd5b80600660008481526020019081526020016000209081611a229190613651565b507ff8e1a15aba9398e019f0b49df1a4fde98ee17ae345cb5f6b5e2c27f5033e8ce782604051611a529190612621565b60405180910390a15050565b60007f80ac58cd000000000000000000000000000000000000000000000000000000007bffffffffffffffffffffffffffffffffffffffffffffffffffffffff1916827bffffffffffffffffffffffffffffffffffffffffffffffffffffffff19161480611b2957507f5b5e139f000000000000000000000000000000000000000000000000000000007bffffffffffffffffffffffffffffffffffffffffffffffffffffffff1916827bffffffffffffffffffffffffffffffffffffffffffffffffffffffff1916145b80611b395750611b3882611e95565b5b9050919050565b60008073ffffffffffffffffffffffffffffffffffffffff16611b6283611538565b73ffffffffffffffffffffffffffffffffffffffff1614159050919050565b611b89611bea565b611b9584848484611eff565b50505050565b50505050565b611ba9610989565b611be8576040517f08c379a0000000000000000000000000000000000000000000000000000000008152600401611bdf9061376f565b60405180910390fd5b565b611bf2610989565b15611c32576040517f08c379a0000000000000000000000000000000000000000000000000000000008152600401611c29906137db565b60405180910390fd5b565b6000611c558473ffffffffffffffffffffffffffffffffffffffff16611f05565b15611dae578373ffffffffffffffffffffffffffffffffffffffff1663150b7a02611c7e611008565b8786866040518563ffffffff1660e01b8152600401611ca09493929190613850565b6020604051808303816000875af1925050508015611cdc57506040513d601f19601f82011682018060405250810190611cd991906138b1565b60015b611d5e573d8060008114611d0c576040519150601f19603f3d011682016040523d82523d6000602084013e611d11565b606091505b506000815103611d56576040517f08c379a0000000000000000000000000000000000000000000000000000000008152600401611d4d90613393565b60405180910390fd5b805181602001fd5b63150b7a0260e01b7bffffffffffffffffffffffffffffffffffffffffffffffffffffffff1916817bffffffffffffffffffffffffffffffffffffffffffffffffffffffff191614915050611db3565b600190505b949350505050565b606060405180602001604052806000815250905090565b6060611ddd82610fbd565b6000611de7611dbb565b90506000815111611e075760405180602001604052806000815250611e32565b80611e1184611f28565b604051602001611e229291906133ef565b6040516020818303038152906040525b915050919050565b611e448383611ff6565b611e516000848484611c34565b611e90576040517f08c379a0000000000000000000000000000000000000000000000000000000008152600401611e8790613393565b60405180910390fd5b505050565b60007f01ffc9a7000000000000000000000000000000000000000000000000000000007bffffffffffffffffffffffffffffffffffffffffffffffffffffffff1916827bffffffffffffffffffffffffffffffffffffffffffffffffffffffff1916149050919050565b50505050565b6000808273ffffffffffffffffffffffffffffffffffffffff163b119050919050565b606060006001611f3784612213565b01905060008167ffffffffffffffff811115611f5657611f55612732565b5b6040519080825280601f01601f191660200182016040528015611f885781602001600182028036833780820191505090505b509050600082602001820190505b600115611feb578080600190039150507f3031323334353637383961626364656600000000000000000000000000000000600a86061a8153600a8581611fdf57611fde6138de565b5b04945060008503611f96575b819350505050919050565b600073ffffffffffffffffffffffffffffffffffffffff168273ffffffffffffffffffffffffffffffffffffffff1603612065576040517f08c379a000000000000000000000000000000000000000000000000000000000815260040161205c90613959565b60405180910390fd5b61206e81611b40565b156120ae576040517f08c379a00000000000000000000000000000000000000000000000000000000081526004016120a5906139c5565b60405180910390fd5b6120bc600083836001611b81565b6120c581611b40565b15612105576040517f08c379a00000000000000000000000000000000000000000000000000000000081526004016120fc906139c5565b60405180910390fd5b6001600360008473ffffffffffffffffffffffffffffffffffffffff1673ffffffffffffffffffffffffffffffffffffffff16815260200190815260200160002060008282540192505081905550816002600083815260200190815260200160002060006101000a81548173ffffffffffffffffffffffffffffffffffffffff021916908373ffffffffffffffffffffffffffffffffffffffff160217905550808273ffffffffffffffffffffffffffffffffffffffff16600073ffffffffffffffffffffffffffffffffffffffff167fddf252ad1be2c89b69c2b068fc378daa952ba7f163c4a11628f55a4df523b3ef60405160405180910390a461220f600083836001611b9b565b5050565b600080600090507a184f03e93ff9f4daa797ed6e38ed64bf6a1f0100000000000000008310612271577a184f03e93ff9f4daa797ed6e38ed64bf6a1f0100000000000000008381612267576122666138de565b5b0492506040810190505b6d04ee2d6d415b85acef810000000083106122ae576d04ee2d6d415b85acef810000000083816122a4576122a36138de565b5b0492506020810190505b662386f26fc1000083106122dd57662386f26fc1000083816122d3576122d26138de565b5b0492506010810190505b6305f5e1008310612306576305f5e10083816122fc576122fb6138de565b5b0492506008810190505b612710831061232b576127108381612321576123206138de565b5b0492506004810190505b6064831061234e5760648381612344576123436138de565b5b0492506002810190505b600a831061235d576001810190505b80915050919050565b6000604051905090565b600080fd5b600080fd5b60007fffffffff0000000000000000000000000000000000000000000000000000000082169050919050565b6123af8161237a565b81146123ba57600080fd5b50565b6000813590506123cc816123a6565b92915050565b6000602082840312156123e8576123e7612370565b5b60006123f6848285016123bd565b91505092915050565b60008115159050919050565b612414816123ff565b82525050565b600060208201905061242f600083018461240b565b92915050565b600081519050919050565b600082825260208201905092915050565b60005b8381101561246f578082015181840152602081019050612454565b60008484015250505050565b6000601f19601f8301169050919050565b600061249782612435565b6124a18185612440565b93506124b1818560208601612451565b6124ba8161247b565b840191505092915050565b600060208201905081810360008301526124df818461248c565b905092915050565b6000819050919050565b6124fa816124e7565b811461250557600080fd5b50565b600081359050612517816124f1565b92915050565b60006020828403121561253357612532612370565b5b600061254184828501612508565b91505092915050565b600073ffffffffffffffffffffffffffffffffffffffff82169050919050565b60006125758261254a565b9050919050565b6125858161256a565b82525050565b60006020820190506125a0600083018461257c565b92915050565b6125af8161256a565b81146125ba57600080fd5b50565b6000813590506125cc816125a6565b92915050565b600080604083850312156125e9576125e8612370565b5b60006125f7858286016125bd565b925050602061260885828601612508565b9150509250929050565b61261b816124e7565b82525050565b60006020820190506126366000830184612612565b92915050565b60008060006060848603121561265557612654612370565b5b6000612663868287016125bd565b9350506020612674868287016125bd565b925050604061268586828701612508565b9150509250925092565b6000602082840312156126a5576126a4612370565b5b60006126b3848285016125bd565b91505092915050565b6126c5816123ff565b81146126d057600080fd5b50565b6000813590506126e2816126bc565b92915050565b600080604083850312156126ff576126fe612370565b5b600061270d858286016125bd565b925050602061271e858286016126d3565b9150509250929050565b600080fd5b600080fd5b7f4e487b7100000000000000000000000000000000000000000000000000000000600052604160045260246000fd5b61276a8261247b565b810181811067ffffffffffffffff8211171561278957612788612732565b5b80604052505050565b600061279c612366565b90506127a88282612761565b919050565b600067ffffffffffffffff8211156127c8576127c7612732565b5b6127d18261247b565b9050602081019050919050565b82818337600083830152505050565b60006128006127fb846127ad565b612792565b90508281526020810184848401111561281c5761281b61272d565b5b6128278482856127de565b509392505050565b600082601f83011261284457612843612728565b5b81356128548482602086016127ed565b91505092915050565b6000806000806080858703121561287757612876612370565b5b6000612885878288016125bd565b9450506020612896878288016125bd565b93505060406128a787828801612508565b925050606085013567ffffffffffffffff8111156128c8576128c7612375565b5b6128d48782880161282f565b91505092959194509250565b600067ffffffffffffffff8211156128fb576128fa612732565b5b6129048261247b565b9050602081019050919050565b600061292461291f846128e0565b612792565b9050828152602081018484840111156129405761293f61272d565b5b61294b8482856127de565b509392505050565b600082601f83011261296857612967612728565b5b8135612978848260208601612911565b91505092915050565b60008060006060848603121561299a57612999612370565b5b60006129a8868287016125bd565b93505060206129b986828701612508565b925050604084013567ffffffffffffffff8111156129da576129d9612375565b5b6129e686828701612953565b9150509250925092565b60008060408385031215612a0757612a06612370565b5b6000612a15858286016125bd565b9250506020612a26858286016125bd565b9150509250929050565b7f4e487b7100000000000000000000000000000000000000000000000000000000600052602260045260246000fd5b60006002820490506001821680612a7757607f821691505b602082108103612a8a57612a89612a30565b5b50919050565b7f4552433732313a20617070726f76616c20746f2063757272656e74206f776e6560008201527f7200000000000000000000000000000000000000000000000000000000000000602082015250565b6000612aec602183612440565b9150612af782612a90565b604082019050919050565b60006020820190508181036000830152612b1b81612adf565b9050919050565b7f4552433732313a20617070726f76652063616c6c6572206973206e6f7420746f60008201527f6b656e206f776e6572206f7220617070726f76656420666f7220616c6c000000602082015250565b6000612b7e603d83612440565b9150612b8982612b22565b604082019050919050565b60006020820190508181036000830152612bad81612b71565b9050919050565b7f4552433732313a2063616c6c6572206973206e6f7420746f6b656e206f776e6560008201527f72206f7220617070726f76656400000000000000000000000000000000000000602082015250565b6000612c10602d83612440565b9150612c1b82612bb4565b604082019050919050565b60006020820190508181036000830152612c3f81612c03565b9050919050565b7f62616c616e6365206e6f7420656e6f7567680000000000000000000000000000600082015250565b6000612c7c601283612440565b9150612c8782612c46565b602082019050919050565b60006020820190508181036000830152612cab81612c6f565b9050919050565b600081905092915050565b50565b6000612ccd600083612cb2565b9150612cd882612cbd565b600082019050919050565b6000612cee82612cc0565b9150819050919050565b7f7472616e73666572206661696c65640000000000000000000000000000000000600082015250565b6000612d2e600f83612440565b9150612d3982612cf8565b602082019050919050565b60006020820190508181036000830152612d5d81612d21565b9050919050565b7f4552433732313a20696e76616c696420746f6b656e2049440000000000000000600082015250565b6000612d9a601883612440565b9150612da582612d64565b602082019050919050565b60006020820190508181036000830152612dc981612d8d565b9050919050565b7f4552433732313a2061646472657373207a65726f206973206e6f74206120766160008201527f6c6964206f776e65720000000000000000000000000000000000000000000000602082015250565b6000612e2c602983612440565b9150612e3782612dd0565b604082019050919050565b60006020820190508181036000830152612e5b81612e1f565b9050919050565b7f4e487b7100000000000000000000000000000000000000000000000000000000600052601160045260246000fd5b6000612e9c826124e7565b9150612ea7836124e7565b9250828202612eb5816124e7565b91508282048414831517612ecc57612ecb612e62565b5b5092915050565b7f57726f6e67206d696e742076616c756500000000000000000000000000000000600082015250565b6000612f09601083612440565b9150612f1482612ed3565b602082019050919050565b60006020820190508181036000830152612f3881612efc565b9050919050565b6000612f4a826124e7565b9150612f55836124e7565b9250828201905080821115612f6d57612f6c612e62565b5b92915050565b7f536f6c64206f7574000000000000000000000000000000000000000000000000600082015250565b6000612fa9600883612440565b9150612fb482612f73565b602082019050919050565b60006020820190508181036000830152612fd881612f9c565b9050919050565b7f457863656564206d61782057616c6c6574000000000000000000000000000000600082015250565b6000613015601183612440565b915061302082612fdf565b602082019050919050565b6000602082019050818103600083015261304481613008565b9050919050565b6000613056826124e7565b91507fffffffffffffffffffffffffffffffffffffffffffffffffffffffffffffffff820361308857613087612e62565b5b600182019050919050565b7f4f776e61626c653a206e6577206f776e657220697320746865207a65726f206160008201527f6464726573730000000000000000000000000000000000000000000000000000602082015250565b60006130ef602683612440565b91506130fa82613093565b604082019050919050565b6000602082019050818103600083015261311e816130e2565b9050919050565b7f4552433732313a207472616e736665722066726f6d20696e636f72726563742060008201527f6f776e6572000000000000000000000000000000000000000000000000000000602082015250565b6000613181602583612440565b915061318c82613125565b604082019050919050565b600060208201905081810360008301526131b081613174565b9050919050565b7f4552433732313a207472616e7366657220746f20746865207a65726f2061646460008201527f7265737300000000000000000000000000000000000000000000000000000000602082015250565b6000613213602483612440565b915061321e826131b7565b604082019050919050565b6000602082019050818103600083015261324281613206565b9050919050565b7f4f776e61626c653a2063616c6c6572206973206e6f7420746865206f776e6572600082015250565b600061327f602083612440565b915061328a82613249565b602082019050919050565b600060208201905081810360008301526132ae81613272565b9050919050565b7f4552433732313a20617070726f766520746f2063616c6c657200000000000000600082015250565b60006132eb601983612440565b91506132f6826132b5565b602082019050919050565b6000602082019050818103600083015261331a816132de565b9050919050565b7f4552433732313a207472616e7366657220746f206e6f6e20455243373231526560008201527f63656976657220696d706c656d656e7465720000000000000000000000000000602082015250565b600061337d603283612440565b915061338882613321565b604082019050919050565b600060208201905081810360008301526133ac81613370565b9050919050565b600081905092915050565b60006133c982612435565b6133d381856133b3565b93506133e3818560208601612451565b80840191505092915050565b60006133fb82856133be565b915061340782846133be565b91508190509392505050565b7f45524337323155524953746f726167653a2055524920736574206f66206e6f6e60008201527f6578697374656e7420746f6b656e000000000000000000000000000000000000602082015250565b600061346f602e83612440565b915061347a82613413565b604082019050919050565b6000602082019050818103600083015261349e81613462565b9050919050565b60008190508160005260206000209050919050565b60006020601f8301049050919050565b600082821b905092915050565b6000600883026135077fffffffffffffffffffffffffffffffffffffffffffffffffffffffffffffffff826134ca565b61351186836134ca565b95508019841693508086168417925050509392505050565b6000819050919050565b600061354e613549613544846124e7565b613529565b6124e7565b9050919050565b6000819050919050565b61356883613533565b61357c61357482613555565b8484546134d7565b825550505050565b600090565b613591613584565b61359c81848461355f565b505050565b5b818110156135c0576135b5600082613589565b6001810190506135a2565b5050565b601f821115613605576135d6816134a5565b6135df846134ba565b810160208510156135ee578190505b6136026135fa856134ba565b8301826135a1565b50505b505050565b600082821c905092915050565b60006136286000198460080261360a565b1980831691505092915050565b60006136418383613617565b9150826002028217905092915050565b61365a82612435565b67ffffffffffffffff81111561367357613672612732565b5b61367d8254612a5f565b6136888282856135c4565b600060209050601f8311600181146136bb57600084156136a9578287015190505b6136b38582613635565b86555061371b565b601f1984166136c9866134a5565b60005b828110156136f1578489015182556001820191506020850194506020810190506136cc565b8683101561370e578489015161370a601f891682613617565b8355505b6001600288020188555050505b505050505050565b7f5061757361626c653a206e6f7420706175736564000000000000000000000000600082015250565b6000613759601483612440565b915061376482613723565b602082019050919050565b600060208201905081810360008301526137888161374c565b9050919050565b7f5061757361626c653a2070617573656400000000000000000000000000000000600082015250565b60006137c5601083612440565b91506137d08261378f565b602082019050919050565b600060208201905081810360008301526137f4816137b8565b9050919050565b600081519050919050565b600082825260208201905092915050565b6000613822826137fb565b61382c8185613806565b935061383c818560208601612451565b6138458161247b565b840191505092915050565b6000608082019050613865600083018761257c565b613872602083018661257c565b61387f6040830185612612565b81810360608301526138918184613817565b905095945050505050565b6000815190506138ab816123a6565b92915050565b6000602082840312156138c7576138c6612370565b5b60006138d58482850161389c565b91505092915050565b7f4e487b7100000000000000000000000000000000000000000000000000000000600052601260045260246000fd5b7f4552433732313a206d696e7420746f20746865207a65726f2061646472657373600082015250565b6000613943602083612440565b915061394e8261390d565b602082019050919050565b6000602082019050818103600083015261397281613936565b9050919050565b7f4552433732313a20746f6b656e20616c7265616479206d696e74656400000000600082015250565b60006139af601c83612440565b91506139ba82613979565b602082019050919050565b600060208201905081810360008301526139de816139a2565b905091905056fea2646970667358221220a63033bd617c19ce41835a6dbb8ec4c46f6e196e698e94f3252615cfd2a382e164736f6c63430008120033",
  "linkReferences": {},
  "deployedLinkReferences": {}
}